:020000040000FA
:02000000D42BFF
:100544003F340034063400345B3400344F34003418
:10055400663400346D3400347C34003407340034A1
:100564007F3400346F3400348312A601A31FBB2AE6
:10057400BC2AC32AA209A309A20A0319A30AA60131
:10058400A60AA11FC62AC72ACC2AA009A109A00A23
:100594000319A10A200821040319D12AD22A012B04
:1005A400A501A50AE02A01300310A00DA10DFF3E0C
:1005B400031DD62A0130A4002408A507A11FE32A9D
:1005C400E42AD52A21082302031DEA2A200822024C
:1005D400031CED2AEE2AF42A2008A2022108031C97
:1005E400A303A30201300310A10CA00CFF3E031DC2
:1005F400F52A0130A502031D002B012BE42A26084D
:100604000319052B062B0B2BA209A309A20A031914
:10061400A30A2308A1002208A0000800831685016C
:10062400860103308312850086010A30A000003061
:10063400A1003008A3002F08A200B62283122108CB
:10064400AE002008AD000A30A0000030A100300840
:10065400A3002F08A2006C2383122108AC002008F9
:10066400AB0005102D08A90029070C3E8400831354
:10067400000886004130AA00EE30A900A90B402BE7
:10068400AA0B402B00008312051485102B08A90027
:1006940029070C3E84008313000886004130AA0019
:1006A400EE30A900A90B542BAA0B542B0000831283
:1006B40085140130AF070318B00A0030B007643066
:1006C4002F063004031D672B682B172BAF01B001D5
:1006D400172B00288312A601A11F712B722B792BD3
:1006E400A009A109A00A0319A10AA601A60AA31F29
:1006F4007C2B7D2B862BA209A309A20A0319A30A2A
:100704000130A4002408A606A701A801200821049A
:1007140003198D2B8E2BC52BA501A50A9C2B01300B
:100724000310A00DA10DFF3E031D922B0130A40068
:100734002408A507A11F9F2BA02B912B0130031088
:10074400A70DA80DFF3E031DA12B21082302031DA5
:10075400AD2B20082202031CB02BB12BB82B200890
:10076400A2022108031CA303A302271401300310CF
:10077400A10CA00CFF3E031DB92B0130A502031DE3
:10078400C42BC52BA02B26080319C92BCA2BCF2B8E
:10079400A709A809A70A0319A80A2808A100270875
:1007A400A0000800A2228C00A3228D00A4228E00A7
:1007B400A5228F00A6229000A7229100A8229200D1
:1007C400A9229300AA229400AB229500AC229600A1
:1007D400AD229700AE229800AF229900B0229A0071
:1007E400B1229B00B2229C00B3229D00B4229E0041
:0C07F400B5229F00AF01B0018301102B63
:02400E00FB3F76
:00000001FF
